:100000008CC0A4C0A3C0A2C0A1C0A0C09FC09EC0FD
:100010009DC09CC09BC09AC099C098C097C000006A
:1000200000000000000000000000000000000000D0
:10003000000000000000020406090B0E1114181B3A
:100040001F23272C30353A40454B51585E656D745F
:100050007C848C959EA8B1BBC6D1DCE7F3FF03047A
:100060000406080A0E12171D242C36404D5B6A7BCD
:100070008EA3BAD3EEFFFFFFFFFFFFFFFFFFFFFFDF
:10008000FFFFFFFFFFFFFFFFFFFFFFFFFFFFFFFF80
:10009000FFFFFFFFFFFFFFFFFFFFFFFFFF00280045
:1000A00000000000000008182800000000000810F0
:1000B0001820280000284000000000000008182830
:1000C000400000000008101820283038401840F880
:1000D0000000000000FAFE0C184000000004080CAC
:1000E000101418000008182800F9F8FAF6FE405F0E
:1000F00045644669476F48744979607E61836289C7
:10010000638E64936598669E67A368A869AD80B2A4
:1001100081B882BD83C284FF210011241FBECFEDB0
:10012000CDBF10E0A0E6B0E0ECEBF7E002C0059038
:100130000D92A636B107D9F720E0A6E6B0E001C0DF
:100140001D92AE37B207E1F773D136C359CF815054
:1001500090E0FC01E25AFF4F2491FC01E25EFF4F68
:10016000849188BD29BD089520ED37E0019720F0E6
:10017000F9013197F1F7FACF089588EE93E0F4CFC3
:10018000369A3699FECF85B10895CF93C091670016
:1001900081E08C0F8F73809367006091680090E01E
:1001A000FDD26FEF8C2F90E0CF91F8C2EEDF60911F
:1001B00064008FE790E0F2D2609163008EE790E0F8
:1001C000EDD260916B008DE790E0E8D26091610024
:1001D0008CE790E0E3D2609160008BE790E0DED2A4
:1001E000609169008AE790E0D9D26091620089E766
:1001F00090E0D4D260916C0088E790E0CFD260911B
:100200006A0087E790E0CAC2CF938FE790E0BED242
:10021000853511F0CF91CACF10926700C091670069
:10022000C03460F48C2F90E0B1D28F3F19F08093EE
:10023000680004C0CF5FC0936700F0CF8EE790E006
:10024000A5D2809363008DE790E0A0D280936B00ED
:100250008CE790E09BD2809361008BE790E096D290
:10026000809360008AE790E091D28093690089E7EB
:1002700090E08CD28093620088E790E087D28093F0
:100280006C0087E790E082D280936A00CF91089556
:10029000E09163009091620020916C0080916A006F
:1002A000882319F020E090E0E9E0F0E083E0EE0F31
:1002B000FF1F8A95E1F7E256FF4F992331F081E065
:1002C00080936E00AFE6B0E002C0AEE6B0E080E042
:1002D000883029F480936D00E9EEF0E008C0349195
:1002E0003323C1F334913D938F5F3196F1CF349135
:1002F0003D93319630E0EF3EF307C8F336E0380F18
:1003000030937D002223E1F0482F50E0FA01E151C3
:10031000FF4FAEE6B0E0BD012A2F261B022E000CD7
:10032000330B2417350724F4319724912D93F4CF00
:10033000992311F021E02C9325E0280F20937D00D4
:10034000992341F090917D009F5F90937D008F5F96
:1003500080936D000895811103C018BC19BC0895E5
:10036000F6CECF93DF93D82F909166002D2F291BC7
:10037000C1E009F4C0E025952595C22BC90FC093B3
:1003800066008C2FE8DF80E190E0EEDEDC13ECCF3E
:10039000DF91CF9108950F931F93CF93C82F8B01B7
:1003A000CC2361F088E1D3DEC801DEDE18BC19BCC5
:1003B000C801DADEC801D8DEC150F2CFCF911F915B
:1003C0000F9108951F93CF93DF93EC01862F6EE377
:1003D00070E0E1DF888111E081278883E7DE6FE04C
:1003E00070E080E2D8DF888118271883DFDEDF9194
:1003F000CF911F91C2CE1F93CF93DF938FEA87B91E
:1004000086EC86B9BDDE10E1C0E0D0E0B9DEC80FF1
:10041000D11D85E090E0A8DE1150C1F7CE0124E0A7
:10042000969587952A95E1F7DF91CF911F910895D1
:10043000A39A83EA87B986EC86B93699FECF369AB5
:100440003699FECFC5B1B99AB89A81EA8ABD81E0E2
:1004500083BFDADE1DDF8091690081113AC0CF3B96
:1004600090F080917E008F5F8F7180937E008091ED
:1004700068008F5F8093680090916D00891748F144
:100480001092680026C010927E00CF35D0F02091E7
:1004900061008091680090916D00222321F02091ED
:1004A0006A00222321F08F5F80936800E7CF8917CD
:1004B00039F3811102C080917D00815080936800E2
:1004C00008C080916A008111DBCF80916B00882386
:1004D000B9F25BDEBB9AC39AA29A81EA87B986EC2D
:1004E00086B9369AC0916800EC2FF0E0E259FF4FD0
:1004F000D08180916900882319F010927E0001C09C
:10050000CD2FF12C10E181EAD82E96ECC92EEE24E5
:10051000EA942DEFB22E3CEFA32E80917E00803125
:10052000C8F12BDE10927E001092680061E08AE62E
:1005300090E048DF80916A008111EFCF62E08BE6A6
:1005400090E040DF63E082E690E03CDF64E08CE630
:1005500090E038DFB092680065E089E690E032DF35
:100560001092680066E081E690E02CDFA0926800BF
:1005700067E089E690E026DF1092680068E084E694
:1005800090E020DFE0916800F0E0E259FF4FC08189
:10059000DC2FCFC0C83FD9F408E080E4D8DD84E187
:1005A00090E0E2DD18BC19BC88E290E0DDDD01508E
:1005B000A1F708E080E4CBDD88E290E0D5DD18BC4F
:1005C00019BC80E590E0D0DD0150A1F7B2C0CA3F70
:1005D00081F404E0E8BC19BC85E090E0C5DD18BCFE
:1005E000E9BC81E490E0C0DD0150A1F780ED92E02C
:1005F0009FC0C63F79F468EC70E083E0CCDE88EE03
:1006000093E0B2DD64EF71E083E0C5DE68EC70E09A
:1006100083E03EC0C93F91F401E0802F9CDE89E178
:1006200090E0A2DD0F5F0134C1F700E4802F93DE7C
:1006300089E190E099DD0150C9F77BC0CE3F61F5BB
:1006400084E690E091DD9CDD90E0292F30E0F90117
:10065000E151FF4FE491E81710F49E5FF6CFF901E6
:10066000E051FF4F04916EE370E0802F82958695F4
:10067000877091DE84EF91E077DD65E070E081E0E6
:100680008ADE8EEE92E070DD6EE370E0802F8F7177
:1006900082DE73DD72DD4DC0CD3F81F410926800C3
:1006A0001092690000E00093630080DD66EA70E06C
:1006B00081E071DE0F5F0930B1F7EBCFCC3FA9F4D9
:1006C00010926800109269008FEF809360006EDDD9
:1006D00080E147DE52DD51DD80E443DE8CDE809335
:1006E000600064DD4ADD49DDF9CF8D2F3ADE83DE1F
:1006F00090916000891758F01F5F103290F0D15030
:10070000182F191B110F110F110F185F0AC0112399
:1007100011F0115031F4DC1718F4DF5F18E101C05B
:1007200010E08D2F1EDEA29AD7B8C6B884EF91E0F4
:100730001BDD10927E00349BF0CE85B1893718F511
:10074000F39487E08F1500F5D134C0F4D23038F03F
:100750008D2F86958695CD2FC695C80F10C018BCD5
:1007600019BC85B7877E806185BF85B7806285BFEC
:10077000889585B78F7D85BFCD2F01C0C0E28C2FB6
:10078000F0DDFBDCDC2FF12C369AC7CEE199FECFF1
:100790001FBA8EBBE09A99278DB30895262FE19951
:1007A000FECF1CBA1FBA8EBB2DBB0FB6F894E29ACF
:0C07B000E19A0FBE01960895F894FFCF67
:0607BC004F01010655008B
:00000001FF
